:100000000C9463000C948B000C948B000C948B006C
:100010000C948B000C948B000C948B000C940B04B0
:100020000C948B000C948B000C948B000C94B104FA
:100030000C948B000C948B000C948B000C948B0014
:100040000C9467040C948B000C948B000C948B0024
:100050000C948B000C948B000C948B000C948B00F4
:100060000C948B000C948B000000000024002700EF
:100070002A000000000023002600290000000008DC
:10008000000201000003040700000000000000005F
:10009000010204081020408001020408102001021F
:1000A0000408102000000000250028002B00040494
:1000B0000404040404040202020202020303030310
:1000C00003030200ED0711241FBECFEFD8E0DEBF0F
:1000D000CDBF11E0A0E0B1E0E8E5F1E102C005909C
:1000E0000D92A436B107D9F721E0A4E6B1E001C032
:1000F0001D92A33CB207E1F710E0C3E6D0E004C0D4
:100100002197FE010E94A408C236D107C9F70E94B8
:100110006D050C94AA080C9400008F929F92AF92E8
:10012000BF92FF920F931F93CF93DF93F090A8019C
:100130002BE02F1508F44CC02091AA0108E512E02D
:10014000021B110927FD1395000F111F000F111F2E
:100150002091A901C8E8D0E0C21BD10927FDD395A1
:10016000CC0FDD1FCC0FDD1F4E010D2E000CAA0899
:10017000BB089801012E000C440B550B28193909B6
:100180004A095B09DC010E945F0824EB30E040E093
:1001900050E00E943508820E931EA41EB51E8C16D8
:1001A0009D062CF0E801801691060CF4E4012297DC
:1001B000CC0FDD1F2FB7F8948F2D90E0FC01EE0FD0
:1001C000FF1FE80FF91FEC57FE4FD283C1832FBFEB
:1001D000DF91CF911F910F91FF90BF90AF909F90B3
:1001E0008F900895AF92BF92CF92DF92EF92FF92DD
:1001F0000F931F93CF93DF936C017B018B01040F4F
:10020000151FEB015E01AE18BF08C017D10759F0EA
:100210006991D601ED91FC910190F081E02DC6012C
:100220000995892B79F7C501DF91CF911F910F9126
:10023000FF90EF90DF90CF90BF90AF900895833004
:1002400081F028F4813099F08230A9F00895873048
:10025000A9F08830C9F08430B1F4809180008F7D9E
:1002600003C0809180008F7780938000089584B5CB
:100270008F7784BD089584B58F7DFBCF8091B000CA
:100280008F778093B00008958091B0008F7DF9CF73
:10029000CF93DF93282F30E0F901E458FF4F84918A
:1002A000F901E057FF4FD491F901E255FF4FC49196
:1002B000CC23A1F081110E941F01EC2FF0E0EE0F82
:1002C000FF1FEE58FF4FA591B491EC91ED2381E013
:1002D00090E009F480E0DF91CF91089580E090E014
:1002E000FACF1F93CF93DF93282F30E0F901E45822
:1002F000FF4F8491F901E057FF4FD491F901E25586
:10030000FF4FC491CC23A9F0162F81110E941F0129
:10031000EC2FF0E0EE0FFF1FEC55FF4FA591B491CD
:100320008FB7F894EC91111108C0D095DE23DC93BF
:100330008FBFDF91CF911F910895DE2BF8CF909161
:10034000000189130BC0E2ECF0E0E4919FEF909381
:100350000001E13049F028F0E23061F060E00C94F7
:10036000710110926E00FACF90916F009D7F909373
:100370006F00F4CF909170009D7F9093700091E09A
:100380009093B0009091B100987F94609093B100E9
:100390001092B300E3CFCF93DF9390E0FC01E057DE
:1003A000FF4F249182559F4FFC0184918823D1F007
:1003B00090E0880F991FFC01E859FF4FA591B49177
:1003C000FC01EC55FF4FC591D49161110EC09FB750
:1003D000F8948C91E22FE0958E238C932881E22370
:1003E000E8839FBFDF91CF9108958FB7F894EC9188
:1003F000E22BEC938FBFF6CF3FB7F89480916B015F
:1004000090916C01A0916D01B0916E0126B5A89BF1
:1004100005C02F3F19F00196A11DB11D3FBFBA2F96
:10042000A92F982F8827BC01CD01620F711D811D56
:10043000911D42E0660F771F881F991F4A95D1F7DB
:1004400008958F929F92AF92BF92CF92DF92EF92D8
:10045000FF924B015C010E94FC016B017C010E9438
:10046000FC016C197D098E099F09683E7340810566
:100470009105A8F321E0821A9108A108B10888EE3D
:10048000C80E83E0D81EE11CF11C81149104A10464
:10049000B10429F7FF90EF90DF90CF90BF90AF901D
:1004A0009F908F900895089590E080E008958F9236
:1004B0009F92AF92BF920F931F93CF93DF93CDB7CD
:1004C000DEB7A1970FB6F894DEBF0FBECDBF19A25D
:1004D000423008F44AE08E010F5D1F4F842E912CAC
:1004E000B12CA12CA50194010E946708E62FB90147
:1004F000CA01EA3044F5E05DD801EE938D01232B6B
:10050000242B252B79F790E080E0109769F0FD010E
:1005100001900020E9F73197AF014A1B5B0BBD0149
:100520008BEA91E00E94F200A1960FB6F894DEBF2C
:100530000FBECDBFDF91CF911F910F91BF90AF90B4
:100540009F908F900895E95CD7CFFC010190002027
:10055000E9F73197AF01481B590BBC018BEA91E0D9
:100560000C94F200CF93DF93EC0160E08E810E9447
:10057000710161E08E810E94710160E08E810E94B4
:1005800071018BE891E00197F1F7DF91CF91089528
:10059000CF92DF92EF92FF920F931F93CF93DF934F
:1005A0006C017C0187E0E80EF11CD0E0C0E0062F72
:1005B00010E0B8010C2E02C0759567950A94E2F719
:1005C0006170F70181917F010E9471012196C43011
:1005D000D10579F7C601DF91CF911F910F91FF905F
:1005E000EF90DF90CF900C94B202CF92DF92EF9217
:1005F000FF920F931F93CF93DF93EC01F62E642F9E
:100600008C810E9471018D818F3F19F060E00E9402
:1006100071010F2D10E08F8584FF25C06E0187E0EA
:10062000C80ED11CF12CE12CB8010E2C02C075951E
:1006300067950A94E2F76170F60181916F010E945B
:100640007101FFEFEF1AFF0A88E0E816F10461F785
:10065000CE01DF91CF911F910F91FF90EF90DF902E
:10066000CF900C94B202B80184E0759567958A9595
:10067000E1F7CE010E94C8026F2DCE01DF91CF912C
:100680001F910F91FF90EF90DF90CF900C94C802D4
:1006900040E0682F8BEA91E00C94F50281E00E9423
:1006A00048038BE39FE10197F1F70895CF93DF9320
:1006B000823029F49091BA0198609093BA018093A6
:1006C000BE011092BF0180E48093C00180E180935D
:1006D000C10180E58093C20161E08091AF010E9479
:1006E000CB018091B0018F3F19F061E00E94CB01F6
:1006F00061E08091B1010E94CB01CBEAD1E09E0183
:100700002B5A31408091BA0184FD0BC084E090E007
:1007100021962817390744F461E08E810E94CB01AD
:10072000EECF88E090E0F4CF8BE39DE00197F1F706
:1007300060E08091AF010E94710160E08091B101A1
:100740000E9471018091B0018F3F19F060E00E941A
:1007500071018091BA0184FD34C063E08BEA91E0BD
:100760000E94C802CBE4D6E4CE010197F1F763E022
:100770008BEA91E00E94C8022197F1F763E08BEACF
:1007800091E00E94C80283E592E00197F1F762E0F0
:100790008BEA91E00E94C8028091BA0180620E94B7
:1007A000480384E08093BB018CE00E9448030E94D0
:1007B0004E0382E08093BC0186E0DF91CF910C94E0
:1007C000480380620E9448038BE496E40197F1F7A6
:1007D0008091BA0180620E94480383E592E001970C
:1007E000F1F78091BA0180620E944803D5CF9091C1
:1007F000BE01891710F08FEF890FE82FF0E0E55563
:10080000FE4F848980680C94480341E00E94F50201
:1008100081E090E008951F920F920FB60F9211247D
:100820002F933F934F935F936F937F938F939F93F8
:10083000AF93BF93EF93FF938091740190917501F3
:10084000A0917601B0917701892B8A2B8B2BD1F166
:1008500090916F01E0917001F09171018081892781
:1008600080838091740190917501A0917601B0917F
:100870007701181619061A061B069CF4809174015C
:1008800090917501A0917601B09177010197A1092E
:10089000B1098093740190937501A0937601B09390
:1008A0007701FF91EF91BF91AF919F918F917F91D0
:1008B0006F915F914F913F912F910F900FBE0F90CD
:1008C0001F901895809100010E949F01EACF1F920E
:1008D0000F920FB60F9211242F933F938F939F93F4
:1008E000AF93BF938091670190916801A0916901D6
:1008F000B0916A013091660123E0230F2D3758F53E
:100900000196A11DB11D209366018093670190930C
:100910006801A0936901B0936A0180916B01909185
:100920006C01A0916D01B0916E010196A11DB11DE8
:1009300080936B0190936C01A0936D01B0936E0155
:10094000BF91AF919F918F913F912F910F900FBECB
:100950000F901F90189526E8230F0296A11DB11D38
:10096000D2CF1F920F920FB60F9211242F933F9365
:100970004F935F936F937F938F939F93AF93BF93A7
:10098000CF93DF93EF93FF9380916501C091640152
:10099000D0E087FF24C010928500109284008091DF
:1009A00065018F5F8093650180916501082E000CC1
:1009B000990B8C179D0724F4809165018C30C4F14C
:1009C0008091840090918500049680349C4908F4BD
:1009D0007AC08091840090918500049676C08091C1
:1009E0006501082E000C990B8C179D07C4F6E09149
:1009F00065018E2FEE0F990BFC01EE0FFF1FE80F24
:100A0000F91FEC57FE4F808186FFC9CFE091650149
:100A10008E2FEE0F990BFC01EE0FFF1FE80FF91F51
:100A2000EC57FE4F808160E08F730E947101B7CF59
:100A30002091840030918500E09165018E2FEE0FAA
:100A4000990BFC01EE0FFF1FE80FF91FEC57FE4F4B
:100A500081819281820F931F9093890080938800F7
:100A6000E09165018E2FEE0F990BFC01EE0FFF1F39
:100A7000E80FF91FEC57FE4F808186FF11C0E0910F
:100A800065018E2FEE0F990BFC01EE0FFF1FE80F93
:100A9000F91FEC57FE4F808161E08F730E94710156
:100AA000FF91EF91DF91CF91BF91AF919F918F9186
:100AB0007F916F915F914F913F912F910F900FBE5A
:100AC0000F901F90189580E49CE990938900809383
:100AD00088008FEF80936501E3CF789484B58260BE
:100AE00084BD84B5816084BD85B5826085BD85B5D2
:100AF000816085BD80916E00816080936E00109250
:100B000081008091810082608093810080918100CA
:100B1000816080938100809180008160809380005B
:100B20008091B10084608093B1008091B0008160B9
:100B30008093B00080917A00846080937A008091E5
:100B40007A00826080937A0080917A00816080933D
:100B50007A0080917A00806880937A001092C100B8
:100B600082E00E94560360E088E00E94CB0160E0D2
:100B70008AE00E94CB018091A8018C3008F051C01E
:100B800061E089E00E94CB018091A801282F30E02C
:100B9000F901EE0FFF1FE20FF31FEC57FE4F90819C
:100BA000907C996090831092A9011092AA012CE088
:100BB000622F0E949808829FB001112430E020E04B
:100BC000AB01420F531FFA01EE0FFF1FE40FF51F99
:100BD000EC57FE4F908196FD16C02F5F3F4F2C3093
:100BE000310571F781110FC01092800082E080936F
:100BF00081001092850010928400B19A80916F005C
:100C0000826080936F00E091A8018E2F90E0FC013C
:100C1000EE0FFF1FE80FF91FEC57FE4F8081806435
:100C2000808384E690E00E948D0080E00E94F703BC
:100C30008FE091E00E94A50281E00E94F7038CE121
:100C400091E00E94A50260ED77E080E090E00E94D4
:100C500021020E944E0361E08DE00E94CB0161E021
:100C600083E00E94CB0132EC232E30E0332E0BEBDD
:100C700010E04DE9E42E40E0F42E88248A94982C6C
:100C80005401CC24C394D12C88E00E944801892BC4
:100C900009F58091820190918301892BD9F4C0914B
:100CA0000101D09102011C161D060CF086C0D092E5
:100CB0008301C09282018091800190918101892BF2
:100CC00049F490E080E00E948D002197D0930201CA
:100CD000C09301018AE00E944801892BE9F48091C8
:100CE000800190918101892BB9F4809182019091CA
:100CF0008301D0928101C0928001892B69F490E038
:100D000080E00E948D008091010190910201019686
:100D1000909302018093010180918201909183015F
:100D20000197C1F48091800190918101019791F424
:100D300068EE73E080E090E00E94210284E690E09B
:100D40000E948D0010928301109282011092810105
:100D50001092800180E00E94F7038BE491E00E94F2
:100D6000A50281E00E94F70388E591E00E94A502B8
:100D70004090010150900201052C000C6608770894
:100D80004AE0C301B20177FE0EC041E06DE28BEA9A
:100D900091E00E94F50266277727CB016419750957
:100DA000860997094AE00E945702E0E0F0E0EF2B45
:100DB00009F46ACF0E94000067CF80E00E94F70329
:100DC0008DE291E00E94A50281E00E94F7038CE38E
:100DD00091E00E94A50268EE73E080E090E00E943E
:100DE00021020E944E038091010190910201892B02
:100DF00009F070CF61E083E00E94710168EE73E05A
:100E000080E090E00E94210260E083E00E94710196
:100E100068EE73E080E090E00E9421028091000182
:100E20008D3029F5F101C491C7FDBFC061E08DE0AF
:100E30000E94CB01CC2309F489C0C23009F09AC0CA
:100E40008091B100887F83608093B10089EF8093A7
:100E5000B3008092740190927501A0927601B092D5
:100E60007701809170008260809370009EC08F3FF8
:100E700009F09BC08DE080930001F101C491CF3F48
:100E800009F493C0C13019F150F0C23009F43CC0EC
:100E9000C7FD8BC061E08DE00E94CB01CECF14BCBA
:100EA00015BC84B5826084BD85B5816085BDF801BF
:100EB0008491E82FF0E0EE0FFF1FEC55FF4F859176
:100EC0009491F701849180937301C0E0AFCF1092A9
:100ED0008000109281008091810088608093810061
:100EE00080918100816080938100F8018491E82FD6
:100EF000F0E0EE0FFF1FEC55FF4F85919491F70145
:100F000084918093720192CF1092B0001092B10040
:100F10008091B00082608093B0008091B1008160C8
:100F20008093B100F8018491E82FF0E0EE0FFF1FED
:100F3000EC55FF4F859194919093710180937001CE
:100F4000F701849180936F01C2E070CF85B5887FEF
:100F5000836085BD8CE787BD80927C0190927D0186
:100F6000A0927E01B0927F0180916E00826080939A
:100F70006E001BC0C13049F580918100887F81607F
:100F8000809381008FE39FE1909389008093880094
:100F90008092780190927901A0927A01B0927B01BF
:100FA00080916F00826080936F0068EE73E080E054
:100FB00090E00E9421028DE00E949F0168EE73E0A4
:100FC00080E090E00E94210285CEC23021F0C11164
:100FD000ECCF8FE3C0CF8FE33ACFCF931092AE0127
:100FE0001092AD0187E091E09093AC018093AB014A
:100FF0008BE08093AF01CFEFC093B0018CE0809382
:10100000B10184E08093B20185E08093B30186E072
:101010008093B40187E08093B5011092B6011092DD
:10102000B7011092B8011092B9011092BA0181E093
:101030000E945603809164018C30A0F491E0980FD7
:10104000909364018093A80190E0FC01EE0FFF1FD4
:10105000E80FF91FEC57FE4F88EB9BE092838183EA
:10106000CF910895C093A801FBCF052E97FB1EF4E6
:1010700000940E944C0857FD07D00E94670807FCA7
:1010800003D04EF40C944C08509540953095219522
:101090003F4F4F4F5F4F08959095809570956195A4
:1010A0007F4F8F4F9F4F08950E948908A59F900DF5
:1010B000B49F900DA49F800D911D11240895B7FF3A
:1010C0000C9454080E945408821B930B0895A1E2CB
:1010D0001A2EAA1BBB1BFD010DC0AA1FBB1FEE1FB2
:1010E000FF1FA217B307E407F50720F0A21BB30BFD
:1010F000E40BF50B661F771F881F991F1A9469F779
:1011000060957095809590959B01AC01BD01CF01D4
:101110000895A29FB001B39FC001A39F700D811DD0
:101120001124911DB29F700D811D1124911D0895F0
:10113000991B79E004C0991F961708F0961B881F29
:101140007A95C9F780950895EE0FFF1F0590F491E9
:08115000E02D0994F894FFCF93
:10115800FF0400000000000504F2005402530220BE
:10116800202041524455494E4F20200020504152E2
:101178004B494E472053595354454D200020205386
:101188004F52525920F09F998120200020506172BF
:101198006B696E672046756C6C2000202057454CA3
:1011A800434F4D4521202000536C6F74204C6566D9
:0411B800743A200065
:00000001FF
